{"abi":[{"type":"constructor","inputs":[{"name":"_avatar","type":"address","internalType":"address"},{"name":"_owner","type":"address","internalType":"address"}],"stateMutability":"nonpayable"},{"type":"function","name":"MAX_RECORDS_PER_EOA","inputs":[],"outputs":[{"name":"","type":"uint256","internalType":"uint256"}],"stateMutability":"view"},{"type":"function","name":"TYPE_INTERBANK","inputs":[],"outputs":[{"name":"","type":"uint8","internalType":"uint8"}],"stateMutability":"view"},{"type":"function","name":"TYPE_PAYMENT","inputs":[],"outputs":[{"name":"","type":"uint8","internalType":"uint8"}],"stateMutability":"view"},{"type":"function","name":"TYPE_TRANSFER","inputs":[],"outputs":[{"name":"","type":"uint8","internalType":"uint8"}],"stateMutability":"view"},{"type":"function","name":"WINDOW_DURATION","inputs":[],"outputs":[{"name":"","type":"uint256","internalType":"uint256"}],"stateMutability":"view"},{"type":"function","name":"authorizeSpend","inputs":[{"name":"amount","type":"uint256","internalType":"uint256"},{"name":"recipientHash","type":"bytes32","internalType":"bytes32"},{"name":"transferType","type":"uint8","internalType":"uint8"}],"outputs":[],"stateMutability":"nonpayable"},{"type":"function","name":"avatar","inputs":[],"outputs":[{"name":"","type":"address","internalType":"address"}],"stateMutability":"view"},{"type":"function","name":"eoaConfigs","inputs":[{"name":"","type":"address","internalType":"address"}],"outputs":[{"name":"dailyLimit","type":"uint256","internalType":"uint256"},{"name":"isRegistered","type":"bool","internalType":"bool"},{"name":"allowedTypesBitmap","type":"uint8","internalType":"uint8"}],"stateMutability":"view"},{"type":"function","name":"getAllowedTypesBitmap","inputs":[{"name":"eoa","type":"address","internalType":"address"}],"outputs":[{"name":"","type":"uint8","internalType":"uint8"}],"stateMutability":"view"},{"type":"function","name":"getDailyLimit","inputs":[{"name":"eoa","type":"address","internalType":"address"}],"outputs":[{"name":"","type":"uint256","internalType":"uint256"}],"stateMutability":"view"},{"type":"function","name":"getRegisteredEOAs","inputs":[],"outputs":[{"name":"","type":"address[]","internalType":"address[]"}],"stateMutability":"view"},{"type":"function","name":"getRemainingLimit","inputs":[{"name":"eoa","type":"address","internalType":"address"}],"outputs":[{"name":"","type":"uint256","internalType":"uint256"}],"stateMutability":"view"},{"type":"function","name":"getRollingSpend","inputs":[{"name":"eoa","type":"address","internalType":"address"}],"outputs":[{"name":"","type":"uint256","internalType":"uint256"}],"stateMutability":"view"},{"type":"function","name":"getSpendRecordCount","inputs":[{"name":"eoa","type":"address","internalType":"address"}],"outputs":[{"name":"","type":"uint256","internalType":"uint256"}],"stateMutability":"view"},{"type":"function","name":"isRegisteredEOA","inputs":[{"name":"eoa","type":"address","internalType":"address"}],"outputs":[{"name":"","type":"bool","internalType":"bool"}],"stateMutability":"view"},{"type":"function","name":"nonce","inputs":[],"outputs":[{"name":"","type":"uint256","internalType":"uint256"}],"stateMutability":"view"},{"type":"function","name":"owner","inputs":[],"outputs":[{"name":"","type":"address","internalType":"address"}],"stateMutability":"view"},{"type":"function","name":"pause","inputs":[],"outputs":[],"stateMutability":"nonpayable"},{"type":"function","name":"paused","inputs":[],"outputs":[{"name":"","type":"bool","internalType":"bool"}],"stateMutability":"view"},{"type":"function","name":"processedNonces","inputs":[{"name":"","type":"uint256","internalType":"uint256"}],"outputs":[{"name":"","type":"bool","internalType":"bool"}],"stateMutability":"view"},{"type":"function","name":"registerEOA","inputs":[{"name":"eoa","type":"address","internalType":"address"},{"name":"dailyLimit","type":"uint256","internalType":"uint256"},{"name":"allowedTypes","type":"uint8[]","internalType":"uint8[]"}],"outputs":[],"stateMutability":"nonpayable"},{"type":"function","name":"registeredEOAs","inputs":[{"name":"","type":"uint256","internalType":"uint256"}],"outputs":[{"name":"","type":"address","internalType":"address"}],"stateMutability":"view"},{"type":"function","name":"revokeEOA","inputs":[{"name":"eoa","type":"address","internalType":"address"}],"outputs":[],"stateMutability":"nonpayable"},{"type":"function","name":"setAvatar","inputs":[{"name":"_avatar","type":"address","internalType":"address"}],"outputs":[],"stateMutability":"nonpayable"},{"type":"function","name":"setTarget","inputs":[{"name":"_target","type":"address","internalType":"address"}],"outputs":[],"stateMutability":"nonpayable"},{"type":"function","name":"target","inputs":[],"outputs":[{"name":"","type":"address","internalType":"address"}],"stateMutability":"view"},{"type":"function","name":"transferOwnership","inputs":[{"name":"_newOwner","type":"address","internalType":"address"}],"outputs":[],"stateMutability":"nonpayable"},{"type":"function","name":"unpause","inputs":[],"outputs":[],"stateMutability":"nonpayable"},{"type":"function","name":"updateAllowedTypes","inputs":[{"name":"eoa","type":"address","internalType":"address"},{"name":"allowedTypes","type":"uint8[]","internalType":"uint8[]"}],"outputs":[],"stateMutability":"nonpayable"},{"type":"function","name":"updateLimit","inputs":[{"name":"eoa","type":"address","internalType":"address"},{"name":"newDailyLimit","type":"uint256","internalType":"uint256"}],"outputs":[],"stateMutability":"nonpayable"},{"type":"event","name":"AvatarSet","inputs":[{"name":"previousAvatar","type":"address","indexed":true,"internalType":"address"},{"name":"newAvatar","type":"address","indexed":true,"internalType":"address"}],"anonymous":false},{"type":"event","name":"EOARegistered","inputs":[{"name":"eoa","type":"address","indexed":true,"internalType":"address"},{"name":"dailyLimit","type":"uint256","indexed":false,"internalType":"uint256"},{"name":"allowedTypes","type":"uint8[]","indexed":false,"internalType":"uint8[]"}],"anonymous":false},{"type":"event","name":"EOARevoked","inputs":[{"name":"eoa","type":"address","indexed":true,"internalType":"address"}],"anonymous":false},{"type":"event","name":"EmergencyPaused","inputs":[{"name":"by","type":"address","indexed":true,"internalType":"address"}],"anonymous":false},{"type":"event","name":"EmergencyUnpaused","inputs":[{"name":"by","type":"address","indexed":true,"internalType":"address"}],"anonymous":false},{"type":"event","name":"LimitUpdated","inputs":[{"name":"eoa","type":"address","indexed":true,"internalType":"address"},{"name":"newDailyLimit","type":"uint256","indexed":false,"internalType":"uint256"}],"anonymous":false},{"type":"event","name":"OwnershipTransferred","inputs":[{"name":"previousOwner","type":"address","indexed":true,"internalType":"address"},{"name":"newOwner","type":"address","indexed":true,"internalType":"address"}],"anonymous":false},{"type":"event","name":"Paused","inputs":[{"name":"account","type":"address","indexed":false,"internalType":"address"}],"anonymous":false},{"type":"event","name":"SpendAuthorized","inputs":[{"name":"m2","type":"address","indexed":true,"internalType":"address"},{"name":"eoa","type":"address","indexed":true,"internalType":"address"},{"name":"amount","type":"uint256","indexed":false,"internalType":"uint256"},{"name":"recipientHash","type":"bytes32","indexed":false,"internalType":"bytes32"},{"name":"transferType","type":"uint8","indexed":false,"internalType":"uint8"},{"name":"nonce","type":"uint256","indexed":false,"internalType":"uint256"}],"anonymous":false},{"type":"event","name":"TargetSet","inputs":[{"name":"previousTarget","type":"address","indexed":true,"internalType":"address"},{"name":"newTarget","type":"address","indexed":true,"internalType":"address"}],"anonymous":false},{"type":"event","name":"Unpaused","inputs":[{"name":"account","type":"address","indexed":false,"internalType":"address"}],"anonymous":false},{"type":"error","name":"CannotRegisterCoreAddress","inputs":[{"name":"account","type":"address","internalType":"address"}]},{"type":"error","name":"DailyLimitExceeded","inputs":[{"name":"requested","type":"uint256","internalType":"uint256"},{"name":"remaining","type":"uint256","internalType":"uint256"}]},{"type":"error","name":"EOAAlreadyRegistered","inputs":[]},{"type":"error","name":"EOANotRegistered","inputs":[]},{"type":"error","name":"EnforcedPause","inputs":[]},{"type":"error","name":"ExpectedPause","inputs":[]},{"type":"error","name":"InvalidAddress","inputs":[]},{"type":"error","name":"InvalidDailyLimit","inputs":[]},{"type":"error","name":"InvalidTransferType","inputs":[]},{"type":"error","name":"ModuleTransactionFailed","inputs":[]},{"type":"error","name":"ReentrancyGuardReentrantCall","inputs":[]},{"type":"error","name":"TooManySpendRecords","inputs":[]},{"type":"error","name":"TransferTypeNotAllowed","inputs":[{"name":"transferType","type":"uint8","internalType":"uint8"}]},{"type":"error","name":"Unauthorized","inputs":[]},{"type":"error","name":"ZeroAmount","inputs":[]}],"bytecode":{"object":"0x6080346200016b57601f620014f838819003918201601f19168301916001600160401b038311848410176200016f5780849260409485528339810103126200016b576200005a6020620000528362000183565b920162000183565b6001600160a01b03918216918215801562000165575b80156200015a575b620001485760018060a01b03199183835f5416175f5583836001541617600155168091600254161760025560405191805f7f52ae88b092de36f87fb43fe794eb1381023b9c1bce563a871154022c63dce3428180a35f7f90cc2f570a6eb594b1580ea3e41247d2d73a55281889e86bd4ec2fc29c7e62d68180a35f7f8be0079c531659141344cd1fd0a4f28419497f9722a3daafe3b4186f6b6457e08180a360017f9b779b17422d0df92223018b32b4d1fa46e071723d6817e2486d003becc55f005561135f9081620001998239f35b60405163e6c4247b60e01b8152600490fd5b508082161562000078565b62000070565b5f80fd5b634e487b7160e01b5f52604160045260245ffd5b51906001600160a01b03821682036200016b5756fe608060409080825260049081361015610016575f80fd5b5f3560e01c908163086cfca814611081575080630b573259146110665780633a8c44131461100c5780633f4ba83a14610f6f578063542a3bb114610f3057806356fab5d414610e1d57806358f2ef1714610de65780635aef7de614610dbf5780635c975abb14610d9957806360c024b014610c3f578063776d1a0114610bb55780637a64c9f414610b6257806380111442146108e45780638456cb5914610848578063852b7e031461075c5780638da5cb5b1461073457806391dae519146107075780639c697750146106e2578063affed0e0146106c4578063b208586414610685578063c17af9f1146103b2578063c303aa2114610397578063c55fdd1f1461037a578063d21373971461035f578063d4b8399214610337578063dcabd1471461031d578063df6d31de14610267578063e390a46c1461023b578063eea9a8db146101fb5763f2fde38b1461016a575f80fd5b346101f75760203660031901126101f75761018361110a565b6002546001600160a01b03808216939192338590036101e857169384156101db5750506001600160a01b03191682176002557f8be0079c531659141344cd1fd0a4f28419497f9722a3daafe3b4186f6b6457e05f80a3005b5163e6c4247b60e01b8152fd5b85516282b42960e81b81528390fd5b5f80fd5b82346101f75760203660031901126101f7576020906001600160a01b0361022061110a565b165f526003825260ff6001825f20015460081c169051908152f35b82346101f75760203660031901126101f75760209061026061025b61110a565b611244565b9051908152f35b5090346101f757806003193601126101f75761028161110a565b60025460243592916001600160a01b03918216330361030e571692835f52600360205260ff6001835f20015416156103005782156102f257507fe1da0d200f1c237767b2a71e6538c013078a9202955cf600248e8d9115a0205b91602091845f526003835281815f205551908152a2005b9051635afbfb0f60e11b8152fd5b9051632fb869b560e11b8152fd5b82516282b42960e81b81528590fd5b82346101f7575f3660031901126101f757602090515f8152f35b82346101f7575f3660031901126101f75760015490516001600160a01b039091168152602090f35b82346101f7575f3660031901126101f7576020905160018152f35b82346101f7575f3660031901126101f75760209051620151808152f35b82346101f7575f3660031901126101f7576020905160c88152f35b5090346101f75760603660031901126101f757813560246044359360ff85168086036101f7577f9b779b17422d0df92223018b32b4d1fa46e071723d6817e2486d003becc55f00946002865414610676576002865561040f6112ee565b841561066757335f5260209260038452815f20600198600182015460ff811615610657579060ff6104439260081c1661130f565b156106435761045133611244565b9054908082111561063b57610465916111af565b8087116106225750335f5260058452815f2060068552825f2054986201518042115f1461061c576201517f19420142811161060a575b8254825b6105ca575b505050335f526006855288835f205560c86104c182549a8b6111af565b10156105bb576001600160801b03835199848b018b811067ffffffffffffffff8211176105a95785528189168b52868b01928242168452600160401b8210156105a9579061051491600182018155611169565b93909361059857509851905160801b6fffffffffffffffffffffffffffffffff1916981697909717909655600754600196909261055084611236565b600755878060a01b035f5416948251968752359086015284015260608301527f6bc00038c548bc8c7d5bcc3edc6b3f719198989051a04b18602e41dee4c2d7db60803393a355005b5f8891634e487b7160e01b8252525ffd5b88604186634e487b7160e01b5f52525ffd5b5090516309d28f1d60e01b8152fd5b90919a818110806105f3575b156105ed576105e490611236565b9a91908261049f565b9a6104a4565b50826105ff8286611169565b505460801c106105d6565b87601185634e487b7160e01b5f52525ffd5b5f61049b565b858760449451936377b326b560e11b8552840152820152fd5b50505f610465565b5092505191636e2d80f560e01b8352820152fd5b8451632fb869b560e11b81528490fd5b51631f2a200560e01b81529050fd5b51633ee5aeb560e01b81529050fd5b82346101f75760203660031901126101f7576020906001600160a01b036106aa61110a565b165f526003825260ff6001825f2001541690519015158152f35b82346101f7575f3660031901126101f7576020906007549051908152f35b82346101f75760203660031901126101f75760209061026061070261110a565b6111ee565b5090346101f75760203660031901126101f757602091355f526008825260ff815f20541690519015158152f35b82346101f7575f3660031901126101f75760025490516001600160a01b039091168152602090f35b5090346101f7575f3660031901126101f75780518083549283825260208092018094865f527f8a35acfbc15ff81a39ae7d344fd709f28e8600b4aa8c65c6b64bfe7fe36bd19b905f5b8582821061082b5750505050839003601f01601f191683019467ffffffffffffffff86118487101761081857508481528185529151818501819052849392840192915f5b8281106107f857505050500390f35b83516001600160a01b0316855286955093810193928101926001016107e9565b604190634e487b7160e01b5f525260245ffd5b83546001600160a01b0316855290930192600192830192016107a5565b5090346101f7575f3660031901126101f757600254916001600160a01b03831633036108d7577f62e78cea01bee320cd4e420270b5ea74000d11b0c9f74754ebdbfc544b05a2586020838561089b6112ee565b60ff60a01b1916600160a01b1760025551338152a1337fb8fad2fa0ed7a383e747c309ef2c4391d7b65592a48893e57ccc1fab707914565f80a2005b90516282b42960e81b8152fd5b5090346101f75760603660031901126101f7576108ff61110a565b602435929067ffffffffffffffff906044358281116101f757610925903690850161117e565b6002546001600160a01b039792959193929088163303610b5457878316978815610b44575f541688148015610b3b575b610b2557875f526020926003845260ff9260019684888b5f20015416610b16578315610b07575f905f5b86898c818410610ab957505050508a5190606082019082821090821117610aa6576109f2928a8e938e8a9481528982528b82019583875285828401951685525f5260038c525f209051815501925115158260ff198554169116178355511661ff0082549160081b169061ff001916179055565b805490600160401b8210156108185791610a1a828897969998959489610a3895019055611120565b90919060018060a01b038084549260031b9316831b921b1916179055565b87519780890191895283890152526060860194935f905b838210610a7f57887fb81f2274dd34b0ce84739373980b7c9353e44269e254bf601aa973854e4dd76a8989038aa2005b9091929394958635908282168092036101f757908152830195830194939291840190610a4f565b604184634e487b7160e01b5f525260245ffd5b610acd8460079493610ad2939896986111d0565b6111e0565b1611610af7578990878281610aec8f888f610acd926111d0565b161b1617920161097f565b8b516331e6aa9160e21b81528490fd5b508851635afbfb0f60e11b8152fd5b50885163f8e9508560e01b8152fd5b86516203a13960e01b8152808301899052602490fd5b50308814610955565b875163e6c4247b60e01b81528390fd5b5085516282b42960e81b8152fd5b82346101f75760203660031901126101f7576060906001600160a01b03610b8761110a565b165f526003602052805f209060ff6001835493015482519384528181161515602085015260081c1690820152f35b50346101f75760203660031901126101f757610bcf61110a565b6002546001600160a01b0392919083163303610c315782169283156101db575050600154826bffffffffffffffffffffffff60a01b821617600155167f90cc2f570a6eb594b1580ea3e41247d2d73a55281889e86bd4ec2fc29c7e62d65f80a3005b5082516282b42960e81b8152fd5b5090346101f75760203660031901126101f757610c5a61110a565b6002546001600160a01b03919082163303610d8b57811692835f52600390600360205260019360ff6001825f2001541615610d7e57855f5260036020525f2060018101905f8254915561ffff191690558054925f5b848110610cde575b867f72b9ab28e339a5e202457b0c8bbb56ac825f3d9401a8e9ca11671d69129cfe4f5f80a2005b8682610ce983611120565b905490871b1c1614610cfc578501610caf565b929450909290915f1991828101908111610d6b5790610a1a84610d21610d2e94611120565b905490891b1c1691611120565b82548015610d58570192610d4184611120565b81939154921b1b19169055555f8080808080610cb7565b603184634e487b7160e01b5f525260245ffd5b601185634e487b7160e01b5f525260245ffd5b51632fb869b560e11b8152fd5b5050516282b42960e81b8152fd5b82346101f7575f3660031901126101f75760209060ff60025460a01c1690519015158152f35b82346101f7575f3660031901126101f7575f5490516001600160a01b039091168152602090f35b82346101f75760203660031901126101f7576020906001600160a01b03610e0b61110a565b165f5260038252805f20549051908152f35b50346101f757816003193601126101f757610e3661110a565b9060243567ffffffffffffffff81116101f757610e56903690830161117e565b600254919390916001600160a01b03919082163303610f21571691825f52600360205260ff60019260ff6001885f2001541615610f1157949291905f955f945b818610610ec1575f8781526003602052899020600101805461ff00191660088a901b61ff0016179055005b909192939496600784610ed8610acd8b87876111d0565b1611610f01578590848281610ef1610acd8d89896111d0565b161b161797019493929190610e96565b88516331e6aa9160e21b81528590fd5b8651632fb869b560e11b81528390fd5b85516282b42960e81b81528490fd5b5090346101f75760203660031901126101f757813591548210156101f757610f59602092611120565b905491519160018060a01b039160031b1c168152f35b5090346101f7575f3660031901126101f757600254916001600160a01b03831633036108d75760ff8360a01c1615610ffe5760ff60a01b19831660025581513381527f5db9ee0a495bf2e6ff9c91a7834c1ba4fdd244a5e8aa4e537bd38aeae4b073aa90602090a1337ff5cbf596165cc457b2cd92e8d8450827ee314968160a5696402d75766fc52caf5f80a2005b9051638dfc202b60e01b8152fd5b82346101f75760203660031901126101f7576020906001600160a01b0361103161110a565b165f5260068252805f205460058352815f2054908082115f1461105d57610260916111af565b51908152f35b50505f90611057565b82346101f7575f3660031901126101f7576020905160028152f35b919050346101f75760203660031901126101f75761109d61110a565b6002546001600160a01b039390841633036110fd575082169283156101db5750505f54826bffffffffffffffffffffffff60a01b8216175f55167f52ae88b092de36f87fb43fe794eb1381023b9c1bce563a871154022c63dce3425f80a3005b6282b42960e81b81529050fd5b600435906001600160a01b03821682036101f757565b6004548110156111555760045f527f8a35acfbc15ff81a39ae7d344fd709f28e8600b4aa8c65c6b64bfe7fe36bd19b01905f90565b634e487b7160e01b5f52603260045260245ffd5b8054821015611155575f5260205f2001905f90565b9181601f840112156101f75782359167ffffffffffffffff83116101f7576020808501948460051b0101116101f757565b919082039182116111bc57565b634e487b7160e01b5f52601160045260245ffd5b91908110156111555760051b0190565b3560ff811681036101f75790565b60018060a01b0381165f52600360205260405f209060ff600183015416156112305761121990611244565b905490808211156112305761122d916111af565b90565b50505f90565b5f1981146111bc5760010190565b905f9160018060a01b03165f52600560205260405f208054600660205260405f2054916201518042115f146112e5576201517f1942014281116111bc579092915b925b828411611295575b50505050565b909192945f1986018681116111bc576112ae9083611169565b5054838160801c106112de576001600160801b031681018091116111bc579480156111bc575f1901929190611287565b509461128f565b5f909291611285565b60ff60025460a01c166112fd57565b60405163d93c066560e01b8152600490fd5b9060ff16906007821161123057600160ff921b161615159056fea26469706673582212200a5afdb4c648d6f3c5d8b29dd587520c2fa3f944cac88f7afc18944c58ca5ab964736f6c63430008180033","linkReferences":{}},"methodIdentifiers":{"MAX_RECORDS_PER_EOA()":"c303aa21","TYPE_INTERBANK()":"0b573259","TYPE_PAYMENT()":"dcabd147","TYPE_TRANSFER()":"d2137397","WINDOW_DURATION()":"c55fdd1f","authorizeSpend(uint256,bytes32,uint8)":"c17af9f1","avatar()":"5aef7de6","eoaConfigs(address)":"7a64c9f4","getAllowedTypesBitmap(address)":"eea9a8db","getDailyLimit(address)":"58f2ef17","getRegisteredEOAs()":"852b7e03","getRemainingLimit(address)":"9c697750","getRollingSpend(address)":"e390a46c","getSpendRecordCount(address)":"3a8c4413","isRegisteredEOA(address)":"b2085864","nonce()":"affed0e0","owner()":"8da5cb5b","pause()":"8456cb59","paused()":"5c975abb","processedNonces(uint256)":"91dae519","registerEOA(address,uint256,uint8[])":"80111442","registeredEOAs(uint256)":"542a3bb1","revokeEOA(address)":"60c024b0","setAvatar(address)":"086cfca8","setTarget(address)":"776d1a01","target()":"d4b83992","transferOwnership(address)":"f2fde38b","unpause()":"3f4ba83a","updateAllowedTypes(address,uint8[])":"56fab5d4","updateLimit(address,uint256)":"df6d31de"},"id":37}